:020000040800F2
:10000000B00A0020C90100086B1E0008091A000888
:10001000691E0008CF0200087526000800000000D5
:100020000000000000000000000000007323000832
:10003000E5040008000000002122000875230008E4
:10004000E3010008E3010008E3010008E301000800
:10005000E3010008E3010008E3010008E3010008F0
:10006000E3010008E3010008E3010008E3010008E0
:10007000E3010008E3010008E3010008E3010008D0
:10008000E3010008E3010008E3010008E3010008C0
:10009000E3010008E3010008E3010008E3010008B0
:1000A000E3010008E3010008E3010008E3010008A0
:1000B000F5230008E3010008E3010008E30100085C
:1000C000E3010008E3010008E3010008E301000880
:1000D000E3010008E3010008E3010008E301000870
:1000E000E3010008E3010008E301000800F002F862
:1000F00000F05AF80AA090E8000C82448344AAF168
:100100000107DA4501D100F04FF8AFF2090EBAE865
:100110000F0013F0010F18BFFB1A43F0010318473B
:10012000882E0000A82E00000A444FF0000C10F8A2
:10013000013B13F0070408BF10F8014B1D1108BF65
:1001400010F8015B641E05D010F8016B641E01F805
:10015000016BF9D113F0080F1EBF10F8014BAD1C55
:100160000C1B09D16D1E58BF01F801CBFAD505E073
:1001700014F8016B01F8016B6D1EF9D59142D6D3CD
:10018000704700000023002400250026103A28BFF5
:1001900078C1FBD8520728BF30C148BF0B607047F9
:1001A0001FB51FBD10B510BD00F058F81146FFF780
:1001B000F7FF02F095FA00F076F803B4FFF7F2FFCC
:1001C00003BC00F07DF8000009488047094800475B
:1001D000FEE7FEE7FEE7FEE7FEE7FEE7FEE7FEE7F7
:1001E000FEE7FEE704480549054A064B7047000054
:1001F000F3230008ED000008B0040020B00A00203E
:10020000B0060020B00600204FF0000200B51346F3
:1002100094469646203922BFA0E80C50A0E80C5026
:10022000B1F12001BFF4F7AF090728BFA0E80C50D7
:1002300048BF0CC05DF804EB890028BF40F8042BD0
:1002400008BF704748BF20F8022B11F0804F18BF3D
:1002500000F8012B7047704770477047754600F0F3
:100260002BF8AE4605006946534620F00700854648
:1002700018B020B5FFF7B6FFBDE820404FF00006EC
:100280004FF000074FF000084FF0000B21F007017E
:10029000AC46ACE8C009ACE8C009ACE8C009ACE8C1
:1002A000C0098D46704710B50446AFF30080204664
:1002B000BDE81040FFF781BF004870474C040020A4
:1002C00001491820ABBEFEE7260002007047FEE79A
:1002D00010B500F05BF8BDE81040322000F006B920
:1002E00010B5282002F0A8F94FF40071034800F07F
:1002F000FFF908B1002010BD012010BD000C014025
:100300001FB50A4B4FF40072012120B1002000926A
:10031000CDE9010104E00320CDE90021CDE902107F
:100320006946184600F0F4F81FBD0000000C0140BB
:1003300070B50D4D4FF400742146284600F0D8F9F1
:100340000028F9D0282002F077F92146284600F04D
:10035000CFF9002806D02146284600F0C9F9002828
:10036000F9D1012070BD0000000C014070B50024DF
:1003700025466006040EFFF7DBFF08B144F00104D8
:100380006D1CEDB2082DF4D3204670BDFEB50026DD
:100390000196029600F092F8FFF7A2FF00287ED0A7
:1003A000404C4FF400752946204600F0A1F9002882
:1003B000F9D02946204600F09BF90028F9D1002405
:1003C0000DF10405FFF7D2FF2855641CE4B2052C9B
:1003D000F8D39DF804009DF805109DF80720084407
:1003E0009DF80610114408449DF80810884254D125
:1003F000002202230421104601F016FE02232AA245
:100400000421202001F0A0FE102500959DF8062073
:1004100002230421282001F061FE04220123114659
:100420003B2001F001FE02231A460621002001F0C4
:10043000FBFD02231CA20621202001F085FE009571
:100440009DF8042002230621282001F047FE022304
:1004500016A206213B2001F077FE9DF806400A2CEB
:1004600007D3142C05D8E0010A21A0F5A06090FB69
:10047000F1F00F480068466302230EA219460020DF
:1004800001F062FE0123A4F118020221322000953E
:1004900001F024FE0120FEBD01E00020FBE7022068
:1004A000F9E70000000C01403A000000485200004B
:1004B000040400204C6576656C3A000010B50020FD
:1004C000FFF71EFF00224FF40071054800F015F9F8
:1004D000142000F00BF8BDE810400120FFF710BF1A
:1004E000000C0140704772B6FEE7000070B504468C
:1004F00000F008F90546601C02D004480078044466
:1005000000F000F9401BA042FAD370BDEC020020BD
:100510002DE9F84FDFF8B891002409F1040A0AF137
:10052000040B23460F270BF1040EC9E00125A5405B
:100530002A40AA427DD1674ED1F804C0ACEB060830
:10054000B44532D014DCBCF1030F3AD009DCBCF165
:10055000000F2AD0BCF1010F1CD0BCF1020F31D129
:100560001DE0BCF1110F17D0BCF1120F2AD119E018
:10057000B8F5881F19D006DCB8F5803F15D0B8F55E
:10058000801F1FD111E0B8F5001F0ED0B8F5041F71
:1005900018D10AE0CB6815E0CB681B1D12E0CB68D0
:1005A00008330FE0CB680C330CE08B682BB1012BC8
:1005B0004FF0080303D0456104E0042302E0056125
:1005C00000E00023FF2A01D8064601E000F10406FE
:1005D0004FEA840501D9A5F12005D6F8008007FA75
:1005E00005FC28EA0C0803FA05F548EA0508C6F8F0
:1005F00000804D68ED0062D5374DAE6946F00106CA
:10060000AE61AD6924F0030605F001050095334D98
:1006100006EB050CDCF80850A607360F07FA06F8BB
:1006200025EA0805DFF8B880404503D14FF00008FF
:1006300017E044E0DFF8AC80404502D14FF00108FC
:100640000FE0DFF8A480404502D14FF0020808E037
:10065000DFF89880404502D14FF0030801E04FF0E9
:10066000040808FA06F848EA0508CCF808804D683E
:10067000D9F80060ED034D4601D5164300E09643DE
:100680002E604D68DAF80060AD03554601D516437B
:1006900000E096432E604D68DBF80060ED025D4699
:1006A00001D5164300E096432E604D68DEF80060E9
:1006B000AD02754601D5164300E096432E60641CDA
:1006C0000D682A46E5407FF431AFBDE8F88F0000A1
:1006D0000004014000001110001002400000014021
:1006E00000080140000C01400010014000140140CE
:1006F0008068084000D0012070470AB1016170474E
:100700000904FBE70148806870470000EC02002004
:1007100070B5040025D094F83D00002520B984F878
:100720003C50204600F050F9242084F83D00206819
:10073000016821F0010101602068016841F4004175
:1007400001602068016821F40041016000F07AFB3B
:100750004D4A6168914201D84C4900E04C498842B9
:1007600001D2012070BD4B492368B0FBF1F15E68F6
:1007700026F03F060E435E606368934206D94FF44D
:10078000967359434FF47A73B1FBF3F12368491C14
:100790001E6A26F03F06314319626168914210D803
:1007A0004900401EB0FBF1F2521CC2F30B02042AB6
:1007B00001D2042022E0B0FBF1F0401CC0F30B009A
:1007C0001CE0A268F2B301EBC10303EB0116431E68
:1007D000B3FBF6F35B1C43F480431B0549D092B393
:1007E00001EBC10202EB0111401EB0FBF1F0401C15
:1007F000C0F30B0040F4804040F400402168CA6917
:100800004CF6FF739A431043C861D4E907100143C3
:100810002068026822F0C00211430160D4E903019C
:1008200001432068826848F2FF339A431143816094
:10083000D4E9050108432168CA6822F0FF02104389
:10084000C86001E00EE016E02068016841F0010197
:1008500001602564202084F83D00256384F83E5023
:10086000002070BD01EB4106431EB3FBF6F35B1C99
:10087000B3E70120C2E701EB4101401EB0FBF1F0FC
:10088000401CC0F30B00B7E7A086010080841E0067
:1008900000093D0040420F002DE9FF4F83B09A460A
:1008A000DDE9119793460446DDF84080FFF72AFF03
:1008B000054694F83D0020287FD1192301224049A4
:1008C0002046009501F032F9002876D194F83C00DA
:1008D000012872D0012084F83C0020680168C90713
:1008E00003D1016841F0010101602068016821F431
:1008F00000610160212084F83D00402084F83E0022
:1009000000262664C4F82480A4F82A90608D2085EF
:100910002C48E062CDE9007553465A4620460499BA
:1009200001F08AF870B930E02A463946204601F0D5
:100930007CF958B1206C042804D12068016841F486
:1009400000710160012007B0BDE8F08F606A216886
:1009500000780861606A401C6062218D491E89B27E
:100960002185628D521E628522685369DB435B07D5
:100970000BD469B100781061606A401C6062208D00
:10098000401E2085608D401E6085208D0028CBD1C3
:100990002A463946204601F0A3F80028CAD154F867
:1009A0003D0B016841F400710160202004F81E092C
:1009B000E67766770020C6E7FFE70220C3E700007E
:1009C000020010000000FFFF10B586B0002100916A
:1009D0000191029103910068104988421BD1104C8B
:1009E000A06940F00800A061A069694600F0080015
:1009F00004904FF440600090122001900320039077
:100A00000848FFF785FDE06940F48000E061E06997
:100A100000F48000049006B010BD000000580040B3
:100A200000100240000C0140024881680278114425
:100A300081607047EC020020074810B5016841F062
:100A400010010160032000F075F80F2000F006F897
:100A500000F024F8002010BD0020024070B50D4DBC
:100A600004464FF47A712878B1FBF0F00A4909681E
:100A7000B1FBF0F000F00BFD48B9102C07D20022BA
:100A80002146501E00F036F800206C6070BD012039
:100A900070BD0000EC020020F80200200C4808B5F0
:100AA000816941F001018161816901F001010091D9
:100AB000C16941F08051C161C06900F0805000906F
:100AC0000448416821F0E06141F00071416008BDD7
:100AD0000010024000000140002809DB00F01F0266
:100AE000012191404009800000F1E020C0F8001190
:100AF00070470000F0B40E4B1B680C46C3F3022392
:100B0000C3F10705042D00D90425191D072901D2B9
:100B1000002300E0DB1E012606FA05F1491E2140F4
:100B200099409E40761E16403143F0BC01F0C8BD8E
:100B30000CED00E0064900F0070208684FF6FF03DD
:100B4000184040EA0220034A104308607047000042
:100B50000CED00E00000FA05014901200862704731
:100B600000000E4210B529A401461DCC86B08DE8C8
:100B70001D002AA02A4C006804900020012923D0DF
:100B800002293AD010291DD161682268D20119D5F5
:100B9000C1F38342C9031DF8020009D5616804AAA4
:100BA000C1F34041515C1F4AB2FBF1F1484301E0FF
:100BB0001D4948436168490204D440005FF00301C5
:100BC000B0FBF1F006B010BD226AC2F30121012989
:100BD00003D1920701D5C803F4E7022905D1626A5F
:100BE000920702D549F64040ECE70329EAD1216893
:100BF0008903E7D54FF22440E4E700F033F9616858
:100C0000C1F38131491C4900DAE700000203040501
:100C1000060708090A0B0C0D0E0F10100102000048
:100C20000010024000127A0000093D002DE9F8434F
:100C300005460078354CC00754D0E0690026C00056
:100C400008D4E06940F08050E061E069012600F0DE
:100C5000805000902E480168C90512D40168804672
:100C600041F480710160FFF74DFD074605E000BFCC
:100C7000FFF748FDC01B642823D8D8F80000C00542
:100C8000F6D5206A10F4407021D0A98801F4407193
:100C900081421CD0206A1F49012220F440700A6062
:100CA00000220A602062C00711D0FFF72BFD074623
:100CB00041F2883808E000BFFFF724FDC11B414521
:100CC00002D90320BDE8F883206A8007F4D5206AA2
:100CD000696820F44070084320621EB1E06920F08A
:100CE0008050E0612878800705D56068A96820F405
:100CF0004040084360602878C00605D56068E96810
:100D000020F48000084360600020DBE70010024010
:100D100000700040400442422DE9F0470F460500B4
:100D200061D0434E306800F00700B84209D2306805
:100D300020F0070038433060306800F00700B84208
:100D400051D128683B4C810712D5400703D5606814
:100D500040F4E06060602878000703D5606840F4E4
:100D6000605060606068A96820F0F000084360602F
:100D70002878C00728D06868012810D02168022888
:100D800010D0890700292EDA616821F003010143A0
:100D90006160FFF7B7FC804641F288390DE02168B9
:100DA0008903EFE78901EDE7FFF7ACFCA0EB080151
:100DB000494502D90320BDE8F0876068696800F002
:100DC0000C00B0EB810FEFD1306800F00700B842A3
:100DD0000BD9306820F0070038433060306800F0ED
:100DE0000700B84201D00120E5E72878400705D583
:100DF0006068E96820F4E0600843606028780007D4
:100E000006D56068296920F4605040EAC10060603E
:100E100000F038F86168084AC1F30311515CC8401A
:100E20000649086006480068FFF718FE0020C2E780
:100E3000002002400010024078270008F80200203D
:100E4000F00200200448054900684968044AC1F3DB
:100E50000221515CC8407047F80200200010024097
:100E6000882700080448054900684968044AC1F316
:100E7000C221515CC8407047F802002000100240B7
:100E80008827000812A185B00FC98DE80F0014A0B3
:100E9000144A006804905168134801F00C03042BB5
:100EA00010D0082B0ED1C1F38343C9031DF80300F2
:100EB0000AD5516804AAC1F34041515C0A4A504323
:100EC000B0FBF1F005B0704708494843FAE700006D
:100ED00002030405060708090A0B0C0D0E0F10107B
:100EE000010200000010024000127A0000093D00DB
:100EF0002DE9F84F040070D02078C04DC00749D0CC
:100F00006868C0F38100012807D06868C0F38100D9
:100F1000022809D16868C00306D52868800339D53E
:100F200060680028E7D035E06068B0F5803F0BD0FE
:100F300010B1B0F5A02F11D0286820F480302860BF
:100F4000286820F4802002E0286840F4803028607F
:100F5000606890B1FFF7D6FB06460AE0286840F4C7
:100F600080202860F0E700BFFFF7CCFB801B6428DF
:100F700073D828688003F7D50CE0FFF7C3FB06465B
:100F800005E000BFFFF7BEFB801B6428F0D828688F
:100F90008003F7D420789A4E80074FF001094FF074
:100FA000000839D5686810F00C0F07D06868C0F3E6
:100FB0008100022809D16868C00306D42868800728
:100FC00014D52069012808D110E02069B0B1C6F815
:100FD0000090FFF797FB074605E00AE1FFF792FB59
:100FE000C01B0228C4D828688007F7D52868616923
:100FF00020F0F80040EAC10028600DE0C6F800804B
:10100000FFF780FB074604E0FFF77CFBC01B0228CC
:1010100023D828688007F7D4207800072CD5794892
:10102000A169D9B1C0F80090FFF76CFB074604E056
:10103000FFF768FBC01B02280FD8686A8007F7D546
:1010400071484FF4FA510068B0FBF1F0009000BF16
:101050000098411E0091FAD20EE080E0C0F80080B6
:10106000FFF750FB074604E0FFF74CFBC01B0228CC
:1010700075D8686A8007F7D42078400760D5E8699A
:101080000027C00008D4E86940F08050E861E869B2
:10109000012700F0805000905C480168C90513D416
:1010A0000168834641F480710160FFF72BFB8246A3
:1010B00006E000BFFFF726FBA0EB0A0064284ED82D
:1010C000DBF80000C005F5D5E06801280AD008B1BA
:1010D000052813D0286A20F001002862286A20F031
:1010E000040002E0286A40F001002862E06841F252
:1010F000883B98B1FFF706FB82460BE0286A40F078
:1011000004002862EEE700BFFFF7FCFAA0EB0A013B
:1011100059455AD8286A8007F6D50CE0FFF7F2FA4D
:10112000824605E0FFF7EEFAA0EB0A0159454CD8DC
:10113000286A8007F6D41FB1E86920F08050E86182
:10114000E06988B36968C1F38101022944D00228AB
:10115000C6F8608004D0FFF7D5FA044638E034E0E2
:10116000FFF7D0FA074604E0FFF7CCFAC01B0228CD
:101170002BD828688001F7D4206AB0F5803F05D1CC
:101180006868A16820F4003008436860D4E9080169
:101190000843696821F4741108436860C6F86090D8
:1011A000FFF7B0FA044606E025E000BFFFF7AAFA11
:1011B000001B022809D828688001F7D51BE000BF72
:1011C000FFF7A0FA001B022802D90320BDE8F88F20
:1011D00028688001F4D40EE00128F7D06868226AFC
:1011E00000F48031914204D1616A00F470108842A9
:1011F00001D00120EAE70020E8E7000000100240EB
:101200000000424280044242F80200200070004088
:1012100070B5040003D0607C002610B105E0012009
:1012200070BD2674204600F043F80220607420460A
:1012300000F010F9042578BB204600F0FBFF58BBF6
:101240002068416821F007014160A06820B117487B
:10125000016821F0010101601448001F0168A268C3
:1012600021F46071114301606068411C04D10120C8
:10127000FFF778FC80B1401E21688A6822F00F02D7
:1012800042EA10428A602168CA6860F30F02CA60AD
:10129000204600F0E9FF08B16574C0E7E67301205D
:1012A0006073A0736074002070BD0000306C00405B
:1012B00008B50068084988420DD1FFF74DFC074882
:1012C000C16941F00061C161C069054900F0006079
:1012D00000900120086008BD002800400010024076
:1012E0003C0442422DE9F0410D4604003BD0C5B319
:1012F000207C01283AD04FF0010884F810800220A9
:101300006074E87872B300F08CFFE073687800F0E6
:1013100088FF6073A87800F084FFA073C2B2617B7D
:10132000E07B00F0D3FF20732870204600F0BEFF62
:101330004FF46161B0FBF1F1002518292DD9182275
:10134000B1FBF2F1A1EB011101EB4101C1EB011184
:1013500000EBC1163146204600F0F7FF0427C8B95C
:101360000BE000E004E00120BDE8F0810220FBE793
:10137000E07368786073A878CFE7204600F08FFFAD
:10138000411C0AD0B04208D206490144204600F070
:10139000C8FF10B167742574E5E784F811802574DF
:1013A0000020E1E7805101002DE9F0410D460400E5
:1013B00024D01DB3207C012823D04FF0010884F8ED
:1013C0001080022060742878EAB100F02AFF4FF400
:1013D000616100FB01F6687800F023FFC0EB0010AC
:1013E00006EB8006A87800F01CFF35182946204639
:1013F00000F0ABFF0026042710BB0FE00120BDE882
:10140000F0810220FBE74FF4616148436978C1EB4A
:10141000011100EB8100A9784518E7E720684168D1
:1014200021F005014160204600F039FF411C0AD03F
:10143000A84208D206490144204600F072FF10B1CC
:1014400067742674DAE784F8118026740020D6E7E2
:101450008051010070B504000AD02068416821F075
:1014600008014160FFF74EF905464FF47A7608E02F
:10147000012070BDFFF746F9401BB04201D903209F
:1014800070BD206840680007F4D5002070BD10B51D
:10149000401EB0F1807F01D3012010BD4FF0E02449
:1014A00060610F21601701F00BF90020A061072097
:1014B0002061002010BD70477047000070B590F8A3
:1014C0003C20012A26D0012480F83C40022280F8EA
:1014D0003D2003685A689D6822F070060A6832430E
:1014E0005A600D4B02689A4208D0B2F1804F05D085
:1014F0000A4B9A4202D00A4B9A4204D1496825F01D
:1015000080031943916080F83D40002180F83C1031
:10151000084670BD022070BD002C01400004004050
:101520000008004010B5040003D094F83D0010B14D
:1015300007E0012010BD002084F83C00204600F0A8
:101540001FF8022084F83D00211D206800F058FF9C
:10155000012084F8460084F83E0084F83F0084F8B7
:10156000400084F8410084F8420084F8430084F885
:10157000440084F8450084F83D00002010BD0000C0
:1015800008B50068B0F1804F12D10A48C16941F036
:101590000101C161C069002200F001000090114604
:1015A0001C20FFF7A7FABDE808401C20FFF794BAFB
:1015B00008BD00000010024070B5044690F83C00E1
:1015C000012817D0012584F83C50022084F83D0002
:1015D0002068826822F0770222F47F4282600868E5
:1015E000502830D00DDC20284DD005DC98B31028D1
:1015F0003BD148E0022070BD302844D0402834D18F
:1016000039E0602828D0702806D0B0F5805F2CD053
:10161000B0F5005F29D10AE0CB68D1E9012120684B
:1016200000F031FF2068816841F0770109E0CB6864
:10163000D1E90121206800F026FF2068816841F48B
:101640008041816011E0CA684968206800F0D0FFDD
:101650005021206807E016E0CA684968206800F059
:10166000D8FF6021206800F018FF84F83D5000206A
:1016700084F83C0070BDCA684968206800F0B8FF73
:1016800040212068EFE7226801461046EBE77047EB
:1016900070B50446006801694FF00005C943890729
:1016A00015D4C168C943890711D4E91E016101201D
:1016B0002077206880698007204602D0FFF7E7FF87
:1016C00004E000F0BDF8204600F04CF925772068D2
:1016D0000169C943490717D4C168C943490713D4ED
:1016E0006FF004010161022020772068806910F406
:1016F000407F204602D0FFF7CAFF04E000F0A0F8C8
:10170000204600F02FF9257720680169C9430907B1
:1017100016D4C168C943090712D46FF008010161EA
:10172000042020772068C0698007204602D0FFF798
:10173000AEFF04E000F084F8204600F013F92577AE
:1017400020680169C943C90617D4C168C943C906DD
:1017500013D46FF010010161082020772068C06960
:1017600010F4407F204602D0FFF791FF04E000F024
:1017700067F8204600F0F6F8257720680169C9432C
:10178000C90708D1C168C943C90704D1891E0161CD
:10179000204600F037F920680169C943090609D4D9
:1017A000C168C943090605D46FF080010161204674
:1017B000FFF781FE20680169C943490609D4C16861
:1017C000C943490605D46FF040010161204600F08D
:1017D0001AF920680169C94389060BD4C168C94355
:1017E000890607D46FF0200101612046BDE87040F2
:1017F000FFF762BE70BD000000B585B0002100910A
:101800000191029103910068B0F1804F11D10A4813
:10181000816941F0040181618069694600F004003A
:101820000490012000900220019003900348FEF7ED
:101830006FFE05B000BD000000100240000801402E
:10184000704770B5044690F83C000D4601280AD058
:10185000012084F83C0042B1042A18D0082A2AD07A
:101860000C2A4DD139E0022070BD206800F01EFE28
:101870002068816941F0080181612068816921F057
:1018800004018161206881692A69114311E020689F
:1018900000F034FE2068816941F4006181612068B4
:1018A000816921F480618161206881692A6941EA46
:1018B0000221816124E0206800F04CFE2068C169AB
:1018C00041F00801C1612068C16921F00401C161D2
:1018D0002068C1692A69114311E0206800F066FEA2
:1018E0002068C16941F40061C1612068C16921F4C7
:1018F0008061C1612068C1692A6941EA0221C16130
:10190000002084F83C0070BD10B5040003D094F8AA
:101910003D0010B107E0012010BD002084F83C001C
:10192000204600F01EF8022084F83D00211D2068AA
:1019300000F066FD012084F8460084F83E0084F83B
:101940003F0084F8400084F8410084F8420084F8A5
:10195000430084F8440084F8450084F83D000020EA
:1019600010BD70477047000010B50446022249B10F
:1019700004290ED0082913D094F84100012816D06C
:10198000012010BD94F83E000128F9D184F83E20D2
:101990000FE094F83F000128F2D184F83F2008E0DE
:1019A00094F840000128EBD184F8402001E084F84D
:1019B00041200122206800F059FD0F49206888422B
:1019C00003D1426C42F4004242642068884208D04D
:1019D000B0F1804F05D00949884202D008498842B9
:1019E00004D1816801F00701062903D0016841F0A4
:1019F00001010160002010BD002C014000040040E6
:101A00000008004070477047FEE701684A69D2430A
:101A100052050FD46FF480624A61002140F8301FF4
:101A2000202242738173026942F004020261017351
:101A300001207047002070472DE9F84304460068F4
:101A40000D46DDE9089701689846164641F4807115
:101A500001604B4600224FF001112046009700F034
:101A600065F848B120680068C00502D54FF40070E1
:101A700020640320BDE8F883216805F0FE000861BA
:101A80003B464A461549204600F084F888B920684C
:101A90004169806900903A464946204600F0C5F801
:101AA00048B1206C042804D12068016841F4007119
:101AB00001600120DEE7F5B2B8F1010F09D021681D
:101AC000300A08613A464946204600F0AEF8002840
:101AD000E7D1206805610020CCE70000020001008A
:101AE00070B516460D4604460DE02046FFF78DFF03
:101AF00008B1012070BD681C05D0FEF703FE801BF5
:101B0000A84207D835B120684069C0434007ECD4EB
:101B1000002070BD002044F8300F20216173A073B5
:101B2000216941F0200121612073E2E72DE9F047AE
:101B30001E4690460D460446C1F30747DDF8209047
:101B400008E0701C06D0FEF7DDFDA0EB0900B042F6
:101B50000FD876B12068012F18D0806925EA0000DF
:101B60000004000C14D000214145EAD00020BDE85B
:101B7000F087002044F8300F20216173A0732169A1
:101B800041F02001216120730120F0E74069E5E781
:101B90000121E9E72DE9F0479A4691460E460446B1
:101BA00000254FF02008C1F3074725E02068406971
:101BB000C043400514D42068016841F400710160FD
:101BC00021686FF480604861256384F83D8084F863
:101BD0003E50206C40F00400206484F83C501FE02C
:101BE000B9F1FF3F08D0FEF78DFDA0EB0A01494592
:101BF0000CD8B9F1000F09D02068012F13D08069EB
:101C000026EA00000004000C0BD0CFE744F8305F58
:101C100084F80D80A573206940F0200020612573B1
:101C20000120BDE8F0874069EAE770B516460D4629
:101C300004460DE02046FFF7E8FE08B1012070BD24
:101C4000681C05D0FEF75EFD801BA84207D835B1A1
:101C500020684069C0430006ECD4002070BD00201D
:101C600044F8300F20216173A073216941F02001F5
:101C700021612073E2E700002DE9F04385B00024E4
:101C800024480094019402940394816941F0100166
:101C90008161816901F010010491816941F02001A5
:101CA0008161816901F020010491816941F00401A1
:101CB0008161816901F004010491816941F00801A9
:101CC00081618069DFF8508000F008004FF40075F2
:101CD0000490002229464046FEF70FFDDFF83C90B5
:101CE000002229464846FEF708FD022701260397F1
:101CF0000095CDE9016469464046FEF709FC03976B
:101D00000095CDE9016469464846FEF701FC05B03F
:101D1000BDE8F0830010024000080140000C0140C3
:101D20000D4810B50B4901600C49416000214FF48A
:101D300080428160C0E9031241618161C161016239
:101D4000FEF7E6FC002803D0BDE81040FEF7CBBB51
:101D500010BD0000005800409C030020A086010038
:101D60007CB5002419480194174900940160611E54
:101D7000C0E90114FFF74CFA08B1FEF7B4FB2325C4
:101D80008DF8045038208DF805008DF806400122AA
:101D900001A90E48FFF708FB08B1FEF7A4FB0120DC
:101DA0008DF8000004208DF801008DF802008DF8F8
:101DB0000350012269460548FFF794FA002801D034
:101DC000FEF791FB7CBD000000280040F0030020DE
:101DD00010B58EB000240794089409940A940B94CB
:101DE0001C2168460C94FEF70FFA1E484FF0804104
:101DF00001601F21C0E901144FF48071C0E9031490
:101E00008461FFF78FFB08B1FEF76DFB4FF4805044
:101E1000079007A91348FFF7CFFB08B1FEF763FB54
:101E20001048FFF771FD08B1FEF75DFB0B940BA99D
:101E30000C480C94FFF742FB08B1FEF754FB6020FE
:101E4000CDE9000402940022694606480494FFF795
:101E5000F8FC08B1FEF747FB0248FFF7CDFC0EB0D7
:101E600010BD000004040020FEE7FEE7002000F0A3
:101E70002DB82DE9FF5F9A4690460026DDF83CB06C
:101E80001EE000270BFB06F9019C12E0214600989A
:101E900000F092F8009D08E0109939447F1C19F871
:101EA000010000F0FBFB6D1CEDB24545F4D3641C52
:101EB000E4B25445EAD32820FEF718FB761CF6B2AC
:101EC0000E988642DDD3BDE8FF9F000070B5064640
:101ED0005FF0000404F1B000C0B200F0CDFB0020C0
:101EE00000F0CAFB102000F0C7FB0025304600F0D0
:101EF000D5FB6D1CEDB2802DF8D3641CE4B2082C28
:101F0000E8D370BD10B56420FEF7F0FAAE2000F003
:101F1000B3FB202000F0B0FB102000F0ADFBB020A0
:101F200000F0AAFBC82000F0A7FB002000F0A4FBF3
:101F3000102000F0A1FB402000F09EFB812000F06B
:101F40009BFBFF2000F098FBA12000F095FBA62052
:101F500000F092FBA82000F08FFB3F2000F08CFBEC
:101F6000A42000F089FBD32000F086FB002000F0C5
:101F700083FBD52000F080FBF02000F07DFBD92012
:101F800000F07AFB222000F077FBDA2000F074FBEF
:101F9000122000F071FBDB2000F06EFB202000F02F
:101FA0006BFB8D2000F068FB142000F065FBBDE8A2
:101FB0001040AF2000F060BB10B50446B031C8B28D
:101FC00000F05AFB102040EA141000F055FB04F01A
:101FD0000F00BDE8104040F0010000F04DBB0000D4
:101FE0002DE9F0410F46804600255401FFF7E4FF3C
:101FF0000C4E305D00F052FB6D1CEDB2641C102DD8
:10200000F7D37F1CF9B24046FFF7D6FF0025305DBD
:1020100000F044FB6D1CEDB2641C102DF7D3BDE83D
:10202000F0810000FC0200202DE9F0411D4616461B
:1020300088460746002409E0A019C2B207EB041045
:10204000C0B24146FFF7CCFF641CE4B2AC42F3D30C
:10205000BDE8F0812DE9F041203A00240D4680468C
:10206000D6B27F2803D900208D1C8046EDB2102BFC
:1020700029460FD0FFF7A0FF164906EB460001EBFB
:102080004005285D00F00AFB641CE4B2062CF8D37E
:10209000BDE8F081FFF790FF0F4F00BF04EB061083
:1020A000385C00F0FBFA641CE4B2082CF6D36D1C1B
:1020B000E9B24046FFF780FF5FF0000404EB061032
:1020C0003844007A00F0EAFA641CE4B2082CF5D334
:1020D000DEE7000090270008B82900082DE9F05F2E
:1020E0000026DDF828901D4692468B4680463446F1
:1020F0004FEA590723E0281B401EC1B20A2000F016
:1021000033FBBAFBF0F00A21B0FBF1F201FB120045
:1021100026B9691E8C4201DA38B101263030C2B2CC
:1021200007FB0480C0B24B4604E007FB0480C0B24A
:102130004B4620225946FFF78DFF641CE4B2AC42A7
:10214000D9D3BDE8F09F00002DE9F0470025914666
:102150008A460446012B22D0DFF8BC80022B24D112
:1021600055E02038C7B27E2C04D90AF101000024C2
:1021700000F0FF0A51462046FFF71EFF07EB47001D
:10218000002608EB4007B85D00F088FA761CF6B22E
:10219000062EF8D3A41D6D1CE4B2EDB201E0DFF809
:1021A0007C8019F805000028DBD1BDE8F0872038D5
:1021B000C7B2782C04D90AF10100002400F0FF0A0C
:1021C00051462046FFF7F8FE5FF0000606EB0711C8
:1021D00018F8010000F062FA761CF6B2082EF5D36A
:1021E0000AF10100C1B22046FFF7E6FE5FF00006EB
:1021F00006EB071101EB0800007A00F04FFA761C9D
:10220000F6B2082EF4D308346D1CE4B2EDB219F81E
:1022100005000028CBD1C8E7B8290008902700089E
:102220007047010901EB810100F00F0000EB410054
:10223000C0B2704770B50446FEF764FA05464FF425
:102240007A7606E0FEF75EFA401BB04201D9032021
:1022500070BD206840688006F4D52068416841F070
:1022600010014160002070BD70B5044600684168EF
:1022700021F010014160FEF745FA05464FF47A76E9
:1022800007E000BFFEF73EFA401BB04201D9032031
:1022900070BD206840688006F4D5002070BD0168DC
:1022A000086A496A89B241EA00407047006881695A
:1022B0008AB2C1698BB2816989B28A4203D0C0698E
:1022C00061F31F40704743EA02407047F0B5642451
:1022D000C1EBC1030927A500072603EB011303295E
:1022E000B3FBF7F100F5FA60114401440AD2401E35
:1022F000B0FBF4F201EB9001B0FBF5F0891A084451
:10230000001D08E0B0FBF4F201EB9001B0FBF5F02A
:10231000891A0844801CB0FBF6F106FB1100C0B21C
:10232000F0BD70B50D4606460024FFF783FF48B99F
:102330003168280C08623168A8B248623046FFF75D
:1023400093FF00B10124204670BD70B50D460646CE
:102350000024FFF76FFF48B93168280C88613168A5
:10236000A8B2C8613046FFF77FFF00B101242046C4
:1023700070BD7047FEF758BB70B594B02821684611
:10238000FDF742FF14210AA8FDF73EFF00240F9439
:102390000520009001A91094119412944FF48030FC
:1023A000012581E8310002260495CDE90760C000CF
:1023B00009906846FEF79CFD08B172B6FEE70F2053
:1023C0000A90CDE90B640D9401210AA80E94FEF742
:1023D000A3FC08B172B6FEE74FF48070CDE90F5050
:1023E0000FA8FEF723FC002801D072B6FEE714B058
:1023F00070BD70470148FFF74BB90000040400208E
:10240000F0B50268164B174C174D4FF080479842B5
:1024100005D0B84203D0A04201D0A84203D122F097
:1024200070064A683243984205D0B84203D0A042B1
:1024300001D0A84203D122F44074CA6822434C69F7
:1024400022F08002224302608A68C2620A688262C5
:10245000984201D10969016301214161F0BD000089
:10246000002C0140000400400008004010B501F0BD
:102470001F030121046A99408C430462016A9A4057
:102480001143016210BD10B5846842EA032224F4AE
:102490007F440A432243826010BD826822F07002AA
:1024A0000A4342F0070181607047000030B5026ABC
:1024B00022F001020262026A4368846924F0730513
:1024C0000C682C4322F002058A682A430A4DA84270
:1024D0000BD122F00805CA6823F440732A434D69E2
:1024E00022F004021D438B692B43436084614968D9
:1024F0004163026230BD0000002C014030B5026A29
:1025000022F010020262026A436884690D6824F4B2
:10251000E64444EA05248D6822F0200242EA0512CE
:102520000B4DA8420ED1CD6822F0800242EA05127E
:102530004D6923F4406343EA85038D6922F040022C
:1025400043EA85034360846149688163026230BD68
:10255000002C014030B5026A22F480720262036AE4
:102560004268C46923F4007324F073050C682C439B
:102570008D6843EA05230C4DA8420ED1CD6823F4A3
:10258000006343EA05234D6922F4405242EA0512F2
:102590008D6923F4806342EA05124260C461496890
:1025A000C163036230BD0000002C014030B5026AF7
:1025B00022F480520262046A4268C3690D6823F4FF
:1025C000E64343EA05238D6824F4005444EA0534C5
:1025D000064DA84204D14D6922F4804242EA851298
:1025E0004260C36149680164046230BD002C01404F
:1025F00010B5036A046A24F001040462846924F0BB
:10260000F00444EA021423F00A020A4384610262DD
:1026100010BD10B5036A23F0100303628369046AD6
:1026200023F4704343EA023224F0A00343EA011189
:102630008261016210BD00000D4900220B685A62E0
:102640000A68136843F00103136009684A6A82420A
:10265000FCD3086A41F21112104207D1086A9210A5
:10266000104203D1086820F00100086070470000A4
:1026700004040020FEE7000001B584B001216422BB
:1026800004A88DE807000B46002278210248FEF7D7
:1026900003F905B000BD00009C03002001B584B023
:1026A0000121642204A88DE807000B46402278210E
:1026B0000248FEF7F1F805B000BD00009C030020C1
:1026C0000907090E002804DB00F1E02080F800145F
:1026D000704700F00F0000F1E02080F8141D7047F3
:1026E0000EB501231BA200215120FFF72DFD1C492F
:1026F000802009684863FEF79FF9FFF73DFEFFF76A
:10270000BBFAFFF70DFBFFF72BFBFFF761FBFFF7B2
:10271000F9FBFFF7ABFB00211148FFF725F94FF458
:102720007A70FDF7E3FE0F4E4FF4B97402250123D2
:1027300008A200215120FFF707FDFDF7C9FDCDE9F3
:10274000005407237F2201214B200296FFF791FBC3
:10275000EDE700004F63746F46616E2100000000DA
:1027600004040020070000200246012000E050433E
:10277000491EC9B2FBD270470000000000000000F3
:102780000102030406070809000000000102030417
:102790000000000000000000002F00000000070003
:1027A000070000147F147F1400242A7F2A1200627D
:1027B0006408132300364955225000000503000029
:1027C00000001C224100000041221C000014083EB1
:1027D00008140008083E0808000000A06000000877
:1027E00008080808000060600000002010080402CB
:1027F000003E5149453E0000427F40000042615189
:102800004946002141454B31001814127F10002722
:1028100045454539003C4A494930000171090503E5
:1028200000364949493600064949291E0000363616
:102830000000000056360000000814224100001479
:102840001414141400004122140800020151090656
:1028500000324959513E007C1211127C007F4949D7
:102860004936003E41414122007F4141221C007F08
:1028700049494941007F09090901003E4149497A16
:10288000007F0808087F0000417F41000020404190
:102890003F01007F08142241007F40404040007FFC
:1028A000020C027F007F0408107F003E4141413E40
:1028B000007F09090906003E4151215E007F091988
:1028C00029460046494949310001017F0101003F85
:1028D0004040403F001F2040201F003F4038403F05
:1028E0000063140814630007087008070061514969
:1028F000454300007F41410000552A552A550000FC
:1029000041417F0000040201020400404040404079
:10291000000001020400002054545478007F484411
:10292000443800384444442000384444487F003848
:102930005454541800087E0901020018A4A4A47C71
:10294000007F080404780000447D4000004080843B
:102950007D00007F102844000000417F4000007C83
:1029600004180478007C080404780038444444388F
:1029700000FC242424180018242418FC007C0804DB
:10298000040800485454542000043F444020003CB4
:102990004040207C001C2040201C003C4030403C3B
:1029A000004428102844001CA0A0A07C00446454CB
:1029B0004C4414141414141400000000000000000F
:1029C0000000000000000000000000F8000000000F
:1029D000000000333000000000100C06100C060050
:1029E000000000000000000040C07840C0784000B7
:1029F000043F04043F040400007088FC0830000019
:102A0000001820FF211E0000F008F000E018000070
:102A100000211C031E211E0000F008887000000029
:102A20001E2123241927211010160E00000000007B
:102A30000000000000000000000000E01804020098
:102A4000000000071820400000020418E000000009
:102A50000040201807000000404080F08040400007
:102A60000202010F01020200000000F0000000005D
:102A70000101011F01010100000000000000000031
:102A800080B07000000000000000000000000000A6
:102A9000000101010101010100000000000000002F
:102AA00000303000000000000000000080601804CA
:102AB000006018060100000000E010080810E000A7
:102AC000000F102020100F00001010F80000000070
:102AD0000020203F202000000070080808887000B7
:102AE0000030282422213000003008888848300037
:102AF0000018202020110E000000C02010F8000057
:102B000000070424243F240000F8088888080800EF
:102B10000019212020110E0000E010888818000004
:102B2000000F112020110E0000380808C8380800D6
:102B30000000003F00000000007088080888700056
:102B4000001C222121221C0000E010080810E000D7
:102B50000000312222110F00000000C0C000000060
:102B60000000003030000000000000800000000085
:102B7000000080600000000000008040201008007D
:102B80000001020408102000404040404040400046
:102B90000404040404040400000810204080000021
:102BA0000020100804020100007048080808F00026
:102BB0000000003036010000C030C828E810E000F6
:102BC0000718272423140B000000C038E000000081
:102BD000203C23020227382008F8888888700000EB
:102BE000203F202020110E00C030080808083800BF
:102BF000071820202010080008F808080810E00036
:102C0000203F202020100F0008F88888E8081000D6
:102C1000203F20202320180008F88888E8081000AA
:102C2000203F200003000000C030080808380000E2
:102C300007182020221E020008F808000008F808E3
:102C4000203F210101213F20000808F8080800006A
:102C50000020203F2020000000000808F80808009D
:102C6000C08080807F00000008F888C02818080015
:102C7000203F20012638200008F80800000000004E
:102C8000203F20202020300008F8F800F8F8080045
:102C9000203F003F003F200008F830C00008F8083F
:102CA000203F200007183F00E01008080810E0004F
:102CB0000F10202020100F0008F808080808F00066
:102CC000203F210101010000E01008080810E00089
:102CD0000F18242438504F0008F88888888870001E
:102CE000203F2000030C30200070880808083800BE
:102CF0000038202121221C00180808F808081800B4
:102D00000000203F2000000008F808000008F80834
:102D1000001F202020201F000878880000C83808E5
:102D2000000007380E010000F80800F80008F8005D
:102D3000033C0700073C03000818688080681808F7
:102D400020302C03032C30200838C800C838080075
:102D50000000203F2000000010080808C8380800C4
:102D60002038262120201800000000FE0202020068
:102D70000000007F40404000000C30C00000000018
:102D8000000000010638C00000020202FE00000040
:102D9000004040407F0000000000040202020400E6
:102DA0000000000000000000000000000000000023
:102DB000808080808080808000020204000000000B
:102DC0000000000000000000000080808080000003
:102DD0000019242222223F2008F8008080000000F1
:102DE000003F112020110E000000008080800000B4
:102DF000000E112020201100000000808088F800C3
:102E0000000E112020103F200000808080800000F4
:102E1000001F222222221300008080F08888881858
:102E20000020203F20200000000080808080800063
:102E3000006B94949493600008F8008080800000F8
:102E4000203F210000203F200080989800000000D3
:102E50000020203F20200000000000809898000003
:102E600000C08080807F000008F800008080800023
:102E7000203F24022D302000000808F80000000048
:102E80000020203F20200000808080808080800003
:102E9000203F20003F20003F808000808080000095
:102EA000203F210000203F20000080808080000023
:102EB000001F202020201F00808000808000000054
:102EC00080FFA12020110E00000000808080800083
:102ED000000E112020A0FF80808080008080800074
:102EE00020203F21200001000000808080808000A1
:102EF0000033242424241900008080E08080000016
:102F00000000001F20200000808000000080800062
:102F1000001F202020103F208080800000808080C3
:102F200000010E3008060100808000800080808053
:102F30000F300C030C300F00008080008080800078
:102F40000020312E0E3120008080800000808080A3
:102F500080818E7018060100008080808080800053
:102F60000021302C2221300000000000807C020271
:102F700000000000003F404000000000FF00000093
:102F800000000000FF0000000002027C8000000042
:102F90000040403F0000000000060101020204045E
:102FA0000000000000000000C82F00080000002002
:102FB0009C03000028010008E03000089C0300206A
:102FC0001407000084010008711332011A34020151
:102FD000162809C0E070301808080C010008200805
:102FE00018181070E0801C3EFFC038280960A0A0AF
:102FF0004040A0A0600C041DE1FF3E180E3C6CC8D0
:10300000C9DBDBCC6582C5C5E2E20400092445CCFE
:10301000DED3D9CC7C182C0101010501AD1332019E
:103020001A34020117280880C0C060202030010730
:103030002120606040C0801DF8FF0301381A802AFB
:10304000390511051D0187FEF8180EF0B020276F15
:103050006C309709161689890400091D1730784FBE
:103060006733F0602B0103011F0106070703030408
:10307000590F01A629A782101324F4251060028C91
:103080002BFE920132FE180A04047E01407E424269
:103090007E0234427E402809FC242424FC25262478
:1030A000081204481040308F80844C552525255542
:1030B0004C80808040493F7940080B204448507F35
:1030C00040407F504844402809060909E6F80C04AE
:1030D000020153041E2E071F302040011A20A900B0
:04000005080000ED02
:00000001FF
