:020000040800F2
:10000000782A0020D1010008731B0008431700085C
:10001000711B0008D70200089523000800000000AB
:10002000000000000000000000000000FD210008AA
:10003000A504000800000000291F0008FF21000897
:10004000EB010008EB010008EB010008EB010008E0
:10005000EB010008EB010008EB010008EB010008D0
:10006000EB010008EB010008EB010008EB010008C0
:10007000EB010008EB010008EB010008EB010008B0
:10008000EB010008EB010008EB010008EB010008A0
:10009000EB010008EB010008EB010008EB01000890
:1000A000EB010008EB010008EB010008EB01000880
:1000B000EB010008EB010008EB010008EB01000870
:1000C000EB010008EB010008EB010008EB01000860
:1000D000EB010008EB010008EB010008EB01000850
:1000E000EB010008EB010008EB01000800F002F84A
:1000F00000F05EF80AA090E8000C82448344AAF164
:100100000107DA4501D100F053F8AFF2090EBAE861
:100110000F0013F0010F18BFFB1A43F0010318473B
:10012000742B0000942B000010F8013B0A4413F0DC
:10013000030408BF10F8014B1D1108BF10F8015B44
:10014000641E05D010F8016B641E01F8016BF9D133
:10015000002D15D010F8014B03F00C030C2BA1EB74
:1001600004040ABF10F8013BA4EB8314A4EB03249E
:1001700005F1010314F8016B5B1E01F8016BF9D561
:10018000914238BF10F8013BD1D3704700230024BF
:1001900000250026103A28BF78C1FBD8520728BF97
:1001A00030C148BF0B6070471FB51FBD10B510BDF3
:1001B00000F058F81146FFF7F7FF02F021F900F0C0
:1001C00076F803B4FFF7F2FF03BC00F07DF80000FF
:1001D0000948804709480047FEE7FEE7FEE7FEE7DB
:1001E000FEE7FEE7FEE7FEE7FEE7FEE70448054917
:1001F000054A064B704700007D220008ED0000080C
:1002000078240020782A00207826002078260020F4
:100210004FF0000200B5134694469646203922BF9F
:10022000A0E80C50A0E80C50B1F12001BFF4F7AFEA
:10023000090728BFA0E80C5048BF0CC05DF804EBCC
:10024000890028BF40F8042B08BF704748BF20F83A
:10025000022B11F0804F18BF00F8012B7047704738
:1002600070477047754600F02BF8AE4605006946AA
:10027000534620F00700854618B020B5FFF7B6FFBB
:10028000BDE820404FF000064FF000074FF0000897
:100290004FF0000B21F00701AC46ACE8C009ACE818
:1002A000C009ACE8C009ACE8C0098D46704710B57C
:1002B0000446AFF300802046BDE81040FFF781BF41
:1002C000004870471824002001491820ABBEFEE703
:1002D000260002007047FEE710B500F05BF8BDE8AD
:1002E0001040322000F0E2B810B5282002F034F8B7
:1002F0004FF40071034800F0DBF908B1002010BD95
:10030000012010BD000C01401FB50A4B4FF40072D4
:10031000012120B100200092CDE9010104E0032079
:10032000CDE90021CDE902106946184600F0D0F869
:100330001FBD0000000C014070B50D4D4FF400745E
:100340002146284600F0B4F90028F9D0282002F010
:1003500003F82146284600F0ABF9002806D02146D4
:10036000284600F0A5F90028F9D1012070BD000051
:10037000000C014070B5002425466006040EFFF70E
:10038000DBFF08B144F001046D1CEDB2082DF4D37D
:10039000204670BD3EB500200190029000F06EF83E
:1003A000FFF7A2FF002860D0314C4FF400752946BA
:1003B000204600F07DF90028F9D02946204600F0BB
:1003C00077F90028F9D100240DF10405FFF7D2FFD9
:1003D0002855641CE4B2052CF8D39DF804009DF860
:1003E00005109DF8072008449DF8061011440844A4
:1003F0009DF80810884236D10022022304211046BD
:1004000001F096FC02231BA20421202001F020FD14
:10041000102400949DF8062002230421282001F0D6
:10042000E1FC0422012311463B2001F081FC022360
:100430001A460621002001F07BFC02230DA20621B2
:10044000202001F005FD00949DF8042002230621E0
:10045000282001F0C7FC022307A206213B2001F05F
:10046000F7FC01203EBD00203EBD02203EBD000045
:10047000000C01403A0000004852000010B5002076
:10048000FFF742FF00224FF40071054800F015F914
:10049000142000F00BF8BDE810400120FFF734BF36
:1004A000000C0140704772B6FEE7000070B50446CC
:1004B00000F008F90546601C02D0044800780444A6
:1004C00000F000F9401BA042FAD370BDB822002012
:1004D0002DE9F84FDFF8B891002409F1040A0AF178
:1004E000040B23460F270BF1040EC9E00125A5409C
:1004F0002A40AA427DD1674ED1F804C0ACEB060871
:10050000B44532D014DCBCF1030F3AD009DCBCF1A5
:10051000000F2AD0BCF1010F1CD0BCF1020F31D169
:100520001DE0BCF1110F17D0BCF1120F2AD119E058
:10053000B8F5881F19D006DCB8F5803F15D0B8F59E
:10054000801F1FD111E0B8F5001F0ED0B8F5041FB1
:1005500018D10AE0CB6815E0CB681B1D12E0CB6810
:1005600008330FE0CB680C330CE08B682BB1012B08
:100570004FF0080303D0456104E0042302E0056165
:1005800000E00023FF2A01D8064601E000F104063E
:100590004FEA840501D9A5F12005D6F8008007FAB5
:1005A00005FC28EA0C0803FA05F548EA0508C6F830
:1005B00000804D68ED0062D5374DAE6946F001060A
:1005C000AE61AD6924F0030605F001050095334DD9
:1005D00006EB050CDCF80850A607360F07FA06F8FC
:1005E00025EA0805DFF8B880404503D14FF0000840
:1005F00017E044E0DFF8AC80404502D14FF001083D
:100600000FE0DFF8A480404502D14FF0020808E077
:10061000DFF89880404502D14FF0030801E04FF029
:10062000040808FA06F848EA0508CCF808804D687E
:10063000D9F80060ED034D4601D5164300E096431E
:100640002E604D68DAF80060AD03554601D51643BB
:1006500000E096432E604D68DBF80060ED025D46D9
:1006600001D5164300E096432E604D68DEF8006029
:10067000AD02754601D5164300E096432E60641C1A
:100680000D682A46E5407FF431AFBDE8F88F0000E1
:100690000004014000001110001002400000014061
:1006A00000080140000C014000100140001401400E
:1006B0008068084000D0012070470AB1016170478E
:1006C0000904FBE70148806870470000B822002059
:1006D00070B5040025D094F83D00002520B984F8B9
:1006E0003C50204600F050F9242084F83D0020685A
:1006F000016821F0010101602068016841F40041B6
:1007000001602068016821F40041016000F06CFB89
:100710004D4A6168914201D84C4900E04C498842F9
:1007200001D2012070BD4B492368B0FBF1F15E6836
:1007300026F03F060E435E606368934206D94FF48D
:10074000967359434FF47A73B1FBF3F12368491C54
:100750001E6A26F03F06314319626168914210D843
:100760004900401EB0FBF1F2521CC2F30B02042AF6
:1007700001D2042022E0B0FBF1F0401CC0F30B00DA
:100780001CE0A268F2B301EBC10303EB0116431EA8
:10079000B3FBF6F35B1C43F480431B0549D092B3D3
:1007A00001EBC10202EB0111401EB0FBF1F0401C55
:1007B000C0F30B0040F4804040F400402168CA6957
:1007C0004CF6FF739A431043C861D4E90710014304
:1007D0002068026822F0C00211430160D4E90301DD
:1007E00001432068826848F2FF339A4311438160D5
:1007F000D4E9050108432168CA6822F0FF021043CA
:10080000C86001E00EE016E02068016841F00101D7
:1008100001602564202084F83D00256384F83E5063
:10082000002070BD01EB4106431EB3FBF6F35B1CD9
:10083000B3E70120C2E701EB4101401EB0FBF1F03C
:10084000401CC0F30B00B7E7A086010080841E00A7
:1008500000093D0040420F002DE9FF4F83B09A464A
:10086000DDE9119793460446DDF84080FFF72AFF43
:10087000054694F83D0020287FD1192301224049E4
:100880002046009500F0F0FF002876D194F83C0057
:10089000012872D0012084F83C0020680168C90753
:1008A00003D1016841F0010101602068016821F471
:1008B00000610160212084F83D00402084F83E0062
:1008C00000262664C4F82480A4F82A90608D208530
:1008D0002C48E062CDE9007553465A4620460499FB
:1008E00000F048FF70B930E02A463946204601F052
:1008F0003AF858B1206C042804D12068016841F40A
:1009000000710160012007B0BDE8F08F606A2168C6
:1009100000780861606A401C6062218D491E89B2BE
:100920002185628D521E628522685369DB435B0715
:100930000BD469B100781061606A401C6062208D40
:10094000401E2085608D401E6085208D0028CBD103
:100950002A463946204600F061FF0028CAD154F8E3
:100960003D0B016841F400710160202004F81E096C
:10097000E67766770020C6E7FFE70220C3E70000BE
:10098000020010000000FFFF10B586B000210091AA
:100990000191029103910068104988421BD1104CCB
:1009A000A06940F00800A061A069694600F0080055
:1009B00004904FF4406000901220019003200390B7
:1009C0000848FFF785FDE06940F48000E061E069D8
:1009D00000F48000049006B010BD000000580040F4
:1009E00000100240000C0140024881680278114466
:1009F00081607047B8220020074810B5016841F0B7
:100A000010010160032000F067F80F2000F006F8E5
:100A100000F024F8002010BD0020024070B50D4DFC
:100A200004464FF47A712878B1FBF0F00A4909685E
:100A3000B1FBF0F000F091FD48B9102C07D2002274
:100A40002146501E00F028F800206C6070BD012087
:100A500070BD0000B8220020C42200200C4808B558
:100A6000816941F001018161816901F00101009119
:100A7000C16941F08051C161C06900F080500090AF
:100A80000448416821F0E06141F00071416008BD17
:100A90000010024000000140F0B40E4B1B680C46F1
:100AA000C3F30223C3F10705042D00D90425191D42
:100AB000072901D2002300E0DB1E012606FA05F11A
:100AC000491E214099409E40761E16403143F0BC9D
:100AD00001F086BC0CED00E0064900F00702086852
:100AE0004FF6FF03184040EA0220034A1043086013
:100AF000704700000CED00E00000FA0501490120FC
:100B00000862704700000E4210B529A401461DCCB2
:100B100086B08DE81D002AA02A4C006804900020B1
:100B2000012923D002293AD010291DD161682268F9
:100B3000D20119D5C1F38342C9031DF8020009D5BA
:100B4000616804AAC1F34041515C1F4AB2FBF1F154
:100B5000484301E01D4948436168490204D440000C
:100B60005FF00301B0FBF1F006B010BD226AC2F3E2
:100B70000121012903D1920701D5C803F4E7022915
:100B800005D1626A920702D549F64040ECE7032995
:100B9000EAD121688903E7D54FF22440E4E700F069
:100BA00033F96168C1F38131491C4900DAE700007B
:100BB00002030405060708090A0B0C0D0E0F10109E
:100BC000010200000010024000127A0000093D00FE
:100BD0002DE9F84305460078354CC00754D0E0694C
:100BE0000026C00008D4E06940F08050E061E06970
:100BF000012600F0805000902E480168C90512D4EB
:100C00000168804641F480710160FFF75BFD074693
:100C100005E000BFFFF756FDC01B642823D8D8F8B5
:100C20000000C005F6D5206A10F4407021D0A988D4
:100C300001F4407181421CD0206A1F49012220F436
:100C400040700A6000220A602062C00711D0FFF7DE
:100C500039FD074641F2883808E000BFFFF732FD52
:100C6000C11B414502D90320BDE8F883206A8007F3
:100C7000F4D5206A696820F44070084320621EB1F0
:100C8000E06920F08050E0612878800705D5606831
:100C9000A96820F44040084360602878C00605D564
:100CA0006068E96820F48000084360600020DBE7AA
:100CB0000010024000700040400442422DE9F0471D
:100CC0000F46050061D0434E306800F00700B8427F
:100CD00009D2306820F0070038433060306800F0F7
:100CE0000700B84251D128683B4C810712D5400714
:100CF00003D5606840F4E06060602878000703D5A1
:100D0000606840F4605060606068A96820F0F0009E
:100D1000084360602878C00728D06868012810D090
:100D20002168022810D0890700292EDA616821F095
:100D3000030101436160FFF7C5FC804641F2883939
:100D40000DE021688903EFE78901EDE7FFF7BAFCC1
:100D5000A0EB0801494502D90320BDE8F08760688F
:100D6000696800F00C00B0EB810FEFD1306800F043
:100D70000700B8420BD9306820F0070038433060D4
:100D8000306800F00700B84201D00120E5E728787C
:100D9000400705D56068E96820F4E06008436060BA
:100DA0002878000706D56068296920F4605040EA79
:100DB000C100606000F038F86168084AC1F30311AF
:100DC000515CC8400649086006480068FFF726FEE7
:100DD0000020C2E700200240001002406424000806
:100DE000C4220020BC22002004480549006849684C
:100DF000044AC1F30221515CC8407047C42200205C
:100E0000001002407424000804480549006849683D
:100E1000044AC1F3C221515CC8407047C42200207B
:100E2000001002407424000812A185B00FC98DE89B
:100E30000F0014A0144A006804905168134801F090
:100E40000C03042B10D0082B0ED1C1F38343C9032C
:100E50001DF803000AD5516804AAC1F34041515C52
:100E60000A4A5043B0FBF1F005B0704708494843C7
:100E7000FAE7000002030405060708090A0B0C0D37
:100E80000E0F1010010200000010024000127A0044
:100E900000093D002DE9F84F040070D02078C04DC6
:100EA000C00749D06868C0F38100012807D068688E
:100EB000C0F38100022809D16868C00306D52868FC
:100EC000800339D560680028E7D035E06068B0F568
:100ED000803F0BD010B1B0F5A02F11D0286820F4BE
:100EE00080302860286820F4802002E0286840F4E0
:100EF00080302860606890B1FFF7E4FB06460AE0A6
:100F0000286840F480202860F0E700BFFFF7DAFB94
:100F1000801B642873D828688003F7D50CE0FFF79E
:100F2000D1FB064605E000BFFFF7CCFB801B642821
:100F3000F0D828688003F7D420789A4E80074FF0C5
:100F400001094FF0000839D5686810F00C0F07D080
:100F50006868C0F38100022809D16868C00306D41C
:100F60002868800714D52069012808D110E020697D
:100F7000B0B1C6F80090FFF7A5FB074605E00AE10F
:100F8000FFF7A0FBC01B0228C4D828688007F7D54C
:100F90002868616920F0F80040EAC10028600DE08F
:100FA000C6F80080FFF78EFB074604E0FFF78AFBD8
:100FB000C01B022823D828688007F7D420780007B0
:100FC0002CD57948A169D9B1C0F80090FFF77AFB18
:100FD000074604E0FFF776FBC01B02280FD8686ABB
:100FE0008007F7D571484FF4FA510068B0FBF1F073
:100FF000009000BF0098411E0091FAD20EE080E000
:10100000C0F80080FFF75EFB074604E0FFF75AFBDD
:10101000C01B022875D8686A8007F7D4207840077B
:1010200060D5E8690027C00008D4E86940F0805026
:10103000E861E869012700F0805000905C48016891
:10104000C90513D40168834641F480710160FFF73C
:1010500039FB824606E000BFFFF734FBA0EB0A0035
:1010600064284ED8DBF80000C005F5D5E0680128FB
:101070000AD008B1052813D0286A20F001002862A0
:10108000286A20F0040002E0286A40F0010028628B
:10109000E06841F2883B98B1FFF714FB82460BE011
:1010A000286A40F004002862EEE700BFFFF70AFB61
:1010B000A0EB0A0159455AD8286A8007F6D50CE0FA
:1010C000FFF700FB824605E0FFF7FCFAA0EB0A0100
:1010D00059454CD8286A8007F6D41FB1E86920F03A
:1010E0008050E861E06988B36968C1F38101022931
:1010F00044D00228C6F8608004D0FFF7E3FA044623
:1011000038E034E0FFF7DEFA074604E0FFF7DAFAEA
:10111000C01B02282BD828688001F7D4206AB0F5BC
:10112000803F05D16868A16820F4003008436860FA
:10113000D4E908010843696821F474110843686020
:10114000C6F86090FFF7BEFA044606E025E000BF4F
:10115000FFF7B8FA001B022809D828688001F7D5E4
:101160001BE000BFFFF7AEFA001B022802D90320E4
:10117000BDE8F88F28688001F4D40EE00128F7D08C
:101180006868226A00F48031914204D1616A00F4F7
:101190007010884201D00120EAE70020E8E7000053
:1011A000001002400000424280044242C42200205B
:1011B00000700040F8B505004FF0000016460C46E0
:1011C000009006D02CB100226946284600F019F89C
:1011D00008B10120F8BD287B2070E87BE070697BB6
:1011E0006170A97BA17056B100F0A8FEE070607834
:1011F00000F0A4FE6070A07800F0A0FEA0700020B7
:10120000F8BD2DE9F04791460C465FEA00084AD048
:1012100084B3D8F800004068400744D4404600F04A
:101220002BFF4FF461620546B0FBF2F1B0FBF2F325
:1012300002FB13503C23B0FBF3F0B5FBF2F66070F9
:1012400002FB1650B0FBF3F203FB1200A07018294A
:1012500031D31820B1FBF0F7B1FBF0F200FB121014
:101260002070404600F001FF411C04D0A84202D982
:10127000461B02E017E04FF0FF36A7EB071000EB2C
:101280004000C0EB001005EBC0152946404600F0B9
:1012900042FF40B9701C01D0711900E03146404650
:1012A00000F025FF10B10120BDE8F0873946404627
:1012B00000F04FFE00E02170B9F1000F0BD0207854
:1012C00000F03CFE2070607800F038FE6070A0787E
:1012D00000F034FEA0700020E6E7000070B50400C6
:1012E00003D0607C002610B105E0012070BD26749B
:1012F000204600F043F802206074204600F010F908
:10130000042578BB204600F07BFE58BB206841686E
:1013100021F007014160A06820B11748016821F061
:10132000010101601448001F0168A26821F4607186
:10133000114301606068411C04D10120FFF7E4FB08
:1013400080B1401E21688A6822F00F0242EA1042F2
:101350008A602168CA6860F30F02CA60204600F004
:1013600069FE08B16574C0E7E67301206073A0737D
:101370006074002070BD0000306C004008B500684B
:10138000084988420DD1FFF7B9FB0748C16941F010
:101390000061C161C069054900F000600090012052
:1013A000086008BD00280040001002403C04424292
:1013B0002DE9F0410D4604003BD0C5B3207C012847
:1013C0003AD04FF0010884F8108002206074E87869
:1013D00072B300F0AAFDE073687800F0A6FD6073B8
:1013E000A87800F0A2FDA073C2B2617BE07B00F0A0
:1013F00053FE20732870204600F03EFE4FF46161DA
:10140000B0FBF1F1002518292DD91822B1FBF2F11A
:10141000A1EB011101EB4101C1EB011100EBC11680
:101420003146204600F077FE0427C8B90BE000E003
:1014300004E00120BDE8F0810220FBE7E07368785A
:101440006073A878CFE7204600F00FFE411C0AD059
:10145000B04208D206490144204600F048FE10B1CF
:1014600067742574E5E784F8118025740020E1E7AE
:10147000805101002DE9F0410D46040024D01DB338
:10148000207C012823D04FF0010884F8108002202E
:1014900060742878EAB100F048FD4FF4616100FB08
:1014A00001F6687800F041FDC0EB001006EB800605
:1014B000A87800F03AFD35182946204600F02BFEAA
:1014C0000026042710BB0FE00120BDE8F0810220B8
:1014D000FBE74FF4616148436978C1EB011100EB10
:1014E0008100A9784518E7E72068416821F00501E7
:1014F0004160204600F0B9FD411C0AD0A84208D244
:1015000006490144204600F0F2FD10B167742674CC
:10151000DAE784F8118026740020D6E780510100B4
:1015200070B504000AD02068416821F008014160CC
:10153000FFF7C8F805464FF47A7608E0012070BD41
:10154000FFF7C0F8401BB04201D9032070BD2068EE
:1015500040680007F4D5002070BD10B5401EB0F102
:10156000807F01D3012010BD4FF0E02460610F2186
:10157000601700F035FF0020A061072020610020E7
:1015800010BD000070B590F83C20012A26D001243F
:1015900080F83C40022280F83D2003685A689D682C
:1015A00022F070060A6832435A600D4B02689A4274
:1015B00008D0B2F1804F05D00A4B9A4202D00A4BB4
:1015C0009A4204D1496825F080031943916080F85C
:1015D0003D40002180F83C10084670BD022070BDDF
:1015E000002C0140000400400008004010B5040039
:1015F00003D094F83D0010B107E0012010BD002099
:1016000084F83C00204600F01FF8022084F83D00DA
:10161000211D206800F034FE012084F8460084F883
:101620003E0084F83F0084F8400084F8410084F8CC
:10163000420084F8430084F8440084F8450084F8AC
:101640003D00002010BD000008B50068B0F1804FDB
:1016500008D10548C16941F00101C161C06900F0CC
:101660000100009008BD00000010024070B5044663
:1016700090F83C00012817D0012584F83C50022046
:1016800084F83D002068826822F0770222F47F42CD
:1016900082600868502830D00DDC20284DD005DC51
:1016A00098B310283BD148E0022070BD302844D0C8
:1016B000402834D139E0602828D0702806D0B0F511
:1016C000805F2CD0B0F5005F29D10AE0CB68D1E96A
:1016D0000121206800F00AFE2068816841F077014E
:1016E00009E0CB68D1E90121206800F0FFFD206806
:1016F000816841F48041816011E0CA6849682068CE
:1017000000F006FE5021206807E016E0CA6849682C
:10171000206800F00EFE6021206800F0F1FD84F8E2
:101720003D50002084F83C0070BDCA6849682068BC
:1017300000F0EEFD40212068EFE7226801461046E8
:10174000EBE7FEE701684A69D24352050FD46FF414
:1017500080624A61002140F8301F20224273817369
:10176000026942F004020261017301207047002007
:10177000704700002DE9F843044600680D46DDE996
:10178000089701689846164641F4807101604B46FF
:1017900000224FF001112046009700F065F848B193
:1017A00020680068C00502D54FF400702064032053
:1017B000BDE8F883216805F0FE0008613B464A4613
:1017C0001549204600F084F888B92068416980698D
:1017D00000903A464946204600F0C5F848B1206CD2
:1017E000042804D12068016841F4007101600120DF
:1017F000DEE7F5B2B8F1010F09D02168300A0861BF
:101800003A464946204600F0AEF80028E7D1206865
:1018100005610020CCE700000200010070B516460B
:101820000D4604460DE02046FFF78CFF08B101206D
:1018300070BD681C05D0FEF745FF801BA84207D885
:1018400035B120684069C0434007ECD4002070BD2A
:10185000002044F8300F20216173A073216941F00A
:10186000200121612073E2E72DE9F0471E469046F2
:101870000D460446C1F30747DDF8209008E0701CD0
:1018800006D0FEF71FFFA0EB0900B0420FD876B1DB
:101890002068012F18D0806925EA00000004000CA0
:1018A00014D000214145EAD00020BDE8F087002097
:1018B00044F8300F20216173A073216941F02001A9
:1018C000216120730120F0E74069E5E70121E9E7A4
:1018D0002DE9F0479A4691460E46044600254FF002
:1018E0002008C1F3074725E020684069C043400550
:1018F00014D42068016841F40071016021686FF41C
:1019000080604861256384F83D8084F83E50206CF7
:1019100040F00400206484F83C501FE0B9F1FF3F20
:1019200008D0FEF7CFFEA0EB0A0149450CD8B9F16B
:10193000000F09D02068012F13D0806926EA00002B
:101940000004000C0BD0CFE744F8305F84F80D8022
:10195000A573206940F02000206125730120BDE8B7
:10196000F0874069EAE770B516460D4604460DE07B
:101970002046FFF7E7FE08B1012070BD681C05D0C6
:10198000FEF7A0FE801BA84207D835B12068406949
:10199000C0430006ECD4002070BD002044F8300F96
:1019A00020216173A073216941F02001216120731E
:1019B000E2E700002DE9F04385B0002424480094BC
:1019C000019402940394816941F01001816181695D
:1019D00001F010010491816941F020018161816968
:1019E00001F020010491816941F008018161816960
:1019F00001F008010491816941F00401816180696D
:101A0000DFF8508000F004004FF4007504900022CD
:101A100029464046FEF751FEDFF83C900022294659
:101A20004846FEF74AFE0227012603970095CDE9B6
:101A3000016469464046FEF74BFD03970095CDE9EA
:101A4000016469464846FEF743FD05B0BDE8F083F2
:101A50000010024000080140000C01400D4810B584
:101A60000B4901600C49416000214FF480428160C4
:101A7000C0E9031241618161C1610162FEF728FE84
:101A8000002803D0BDE81040FEF70DBD10BD0000DA
:101A90000058004068230020A08601007CB5002487
:101AA00019480194174900940160611EC0E90114AE
:101AB000FFF714FC08B1FEF7F6FC23258DF804505F
:101AC00038208DF805008DF80640012201A90E4846
:101AD000FFF7D0FC08B1FEF7E6FC01208DF800000E
:101AE00004208DF801008DF802008DF803500122CA
:101AF00069460548FFF75CFC002801D0FEF7D3FCDF
:101B00007CBD000000280040BC23002010B586B03A
:101B100000241648009401940294039404944FF016
:101B20008041059401601F21C0E901144FF6FF7147
:101B3000C0E903148461FFF759FD08B1FEF7B3FC57
:101B40004FF48050009069460848FFF78FFD08B1B8
:101B5000FEF7A9FC049404A904480594FFF712FDBC
:101B6000002801D0FEF79FFC06B010BDD023002056
:101B7000FEE7FEE7002000F02DB82DE9FF5F9A4652
:101B800090460026DDF83CB01EE000270BFB06F96E
:101B9000019C12E02146009800F092F8009D08E0B8
:101BA000109939447F1C19F8010000F007FC6D1CE6
:101BB000EDB24545F4D3641CE4B25445EAD3282081
:101BC000FEF774FC761CF6B20E988642DDD3BDE8B3
:101BD000FF9F000070B506465FF0000404F1B000FE
:101BE000C0B200F0D9FB002000F0D6FB102000F0BE
:101BF000D3FB0025304600F0E1FB6D1CEDB2802DDB
:101C0000F8D3641CE4B2082CE8D370BD10B564208E
:101C1000FEF74CFCAE2000F0BFFB202000F0BCFB28
:101C2000102000F0B9FBB02000F0B6FBC82000F097
:101C3000B3FB002000F0B0FB102000F0ADFB402013
:101C400000F0AAFB812000F0A7FBFF2000F0A4FB1E
:101C5000A12000F0A1FBA62000F09EFBA82000F030
:101C60009BFB3F2000F098FBA42000F095FBD320C5
:101C700000F092FB002000F08FFBD52000F08CFBE1
:101C8000F02000F089FBD92000F086FB222000F034
:101C900083FBDA2000F080FB122000F07DFBDB20CC
:101CA00000F07AFB202000F077FB8D2000F074FB21
:101CB000142000F071FBBDE81040AF2000F06CBBB9
:101CC00010B50446B031C8B200F066FB102040EAFF
:101CD000141000F061FB04F00F00BDE8104040F06C
:101CE000010000F059BB00002DE9F0410F4680468D
:101CF00000255401FFF7E4FF0C4E305D00F05EFB61
:101D00006D1CEDB2641C102DF7D37F1CF9B2404658
:101D1000FFF7D6FF0025305D00F050FB6D1CEDB2E3
:101D2000641C102DF7D3BDE8F0810000C82200200C
:101D30002DE9F0411D46164688460746002409E075
:101D4000A019C2B207EB0410C0B24146FFF7CCFFA6
:101D5000641CE4B2AC42F3D3BDE8F0812DE9F0415C
:101D6000203A00240D468046D6B27F2803D90020B1
:101D70008D1C8046EDB2102B29460FD0FFF7A0FF37
:101D8000164906EB460001EB4005285D00F016FB06
:101D9000641CE4B2062CF8D3BDE8F081FFF790FF95
:101DA0000F4F00BF04EB0610385C00F007FB641C0B
:101DB000E4B2082CF6D36D1CE9B24046FFF780FF71
:101DC0005FF0000404EB06103844007A00F0F6FAE5
:101DD000641CE4B2082CF5D3DEE700007C24000884
:101DE000A42600082DE9F05F0026DDF828901D46A6
:101DF00092468B46804634464FEA590723E0281B1B
:101E0000401EC1B20A2000F025FBBAFBF0F00A2107
:101E1000B0FBF1F201FB120026B9691E8C4201DA17
:101E200038B101263030C2B207FB0480C0B24B4645
:101E300004E007FB0480C0B24B4620225946FFF75E
:101E40008DFF641CE4B2AC42D9D3BDE8F09F000022
:101E50002DE9F047002591468A460446012B22D001
:101E6000DFF8BC80022B24D155E02038C7B27E2C8D
:101E700004D90AF10100002400F0FF0A514620466F
:101E8000FFF71EFF07EB4700002608EB4007B85D91
:101E900000F094FA761CF6B2062EF8D3A41D6D1C41
:101EA000E4B2EDB201E0DFF87C8019F8050000280B
:101EB000DBD1BDE8F0872038C7B2782C04D90AF10D
:101EC0000100002400F0FF0A51462046FFF7F8FE0B
:101ED0005FF0000606EB071118F8010000F06EFA3B
:101EE000761CF6B2082EF5D30AF10100C1B22046E5
:101EF000FFF7E6FE5FF0000606EB071101EB0800B6
:101F0000007A00F05BFA761CF6B2082EF4D308349F
:101F10006D1CE4B2EDB219F805000028CBD1C8E77A
:101F2000A42600087C2400087047010901EB810108
:101F300000F00F0000EB4100C0B27047002102E04A
:101F40000A38C0B2491C0A28FAD2090740EA1160CF
:101F500070472DE9F04104460025C07B627BA37BDE
:101F600042E0012A16D0032A14D0052A12D0072AEB
:101F700010D0082A0ED00A2A0CD00C2A0AD0042A23
:101F800010D0062A0ED0092A0CD00B2A0AD0022A19
:101F90000DD028E01F2B0CD30C2A05D101221346AB
:101FA000401C20E01E2B04D30123521C1BE01C2BE1
:101FB00002D203F1010316E011D183B29E0710D1C2
:101FC0006426B3FBF6F706FB173636B94FF4C8762E
:101FD000B3FBF6F706FB17331BB91D2303E01D2BDC
:101FE00001D1032201236D1C8D42BAD3D1B2E0731B
:101FF0006173DAB2A27300F04FF82073BDE8F0818C
:1020000070B50446FEF75EFB05464FF47A7606E0AF
:10201000FEF758FB401BB04201D9032070BD206879
:1020200040688006F4D52068416841F010014160A5
:10203000002070BD70B504460068416821F01001B1
:102040004160FEF73FFB05464FF47A7607E000BF9C
:10205000FEF738FB401BB04201D9032070BD206859
:1020600040688006F4D5002070BD0168086A496A9E
:1020700089B241EA00407047006881698AB2C1694B
:102080008BB2816989B28A4203D0C06961F31F4073
:10209000704743EA02407047F0B56424C1EBC103C6
:1020A0000927A500072603EB01130329B3FBF7F16A
:1020B00000F5FA60114401440AD2401EB0FBF4F26C
:1020C00001EB9001B0FBF5F0891A0844001D08E00F
:1020D000B0FBF4F201EB9001B0FBF5F0891A084473
:1020E000801CB0FBF6F106FB1100C0B2F0BD70B56C
:1020F0000D4606460024FFF783FF48B93168280CD7
:1021000008623168A8B248623046FFF793FF00B119
:102110000124204670BD70B50D4606460024FFF729
:102120006FFF48B93168280C88613168A8B2C8616E
:102130003046FFF77FFF00B10124204670BD00004C
:1021400038B5002229492A48FFF75BF827490022C1
:10215000C91C2748FFF72EF8244D1024ED1C0094CD
:10216000EA7800210423084602F5FA62FFF73AFEF6
:10217000022320A21E212320FFF76AFE00946A7822
:10218000022300212D20FFF72DFE022319A21E217C
:102190003C20FFF75DFE0094AA7802230021462030
:1021A000FFF720FEED1E009402232A781946002036
:1021B000FFF718FE022310A219461420FFF748FE6D
:1021C000009402236A7819461E20FFF70BFE0223B3
:1021D00009A219462F20FFF73BFE00940223AA789C
:1021E00019463A20FFF7FEFD38BD00000000002030
:1021F000BC2300202E0000003A0000007047FEF7CC
:10220000F3BB70B594B028216846FEF701F814219D
:102210000AA8FDF7FDFF00240F940520009001A9F6
:102220001094119412944FF48030012581E831000C
:1022300002260495CDE90760C00009906846FEF7C4
:1022400029FE08B172B6FEE70F200A90CDE90B64B3
:102250000D9401210AA80E94FEF730FD08B172B664
:10226000FEE74FF48070CDE90F500FA8FEF7B0FCE9
:10227000002801D072B6FEE714B070BD70470000B0
:10228000F0B50268164B174C174D4FF08047984237
:1022900005D0B84203D0A04201D0A84203D122F019
:1022A00070064A683243984205D0B84203D0A04233
:1022B00001D0A84203D122F44074CA6822434C6979
:1022C00022F08002224302608A68C2620A68826247
:1022D000984201D10969016301214161F0BD00000B
:1022E000002C0140000400400008004010B5846844
:1022F00042EA032224F47F440A432243826010BD51
:10230000826822F070020A4342F007018160704740
:1023100010B5036A046A24F001040462846924F09D
:10232000F00444EA021423F00A020A4384610262C0
:1023300010BD10B5036A23F0100303628369046AB9
:1023400023F4704343EA023224F0A00343EA01116C
:102350008261016210BD00000D4900220B685A62C3
:102360000A68136843F00103136009684A6A8242ED
:10237000FCD3086A41F21112104207D1086A921088
:10238000104203D1086820F0010008607047000087
:10239000D0230020FEE7000001B584B001216422B3
:1023A00004A88DE807000B46002278210248FEF7BA
:1023B00053FA05B000BD00006823002001B584B0C9
:1023C0000121642204A88DE807000B4640227821F1
:1023D0000248FEF741FA05B000BD00006823002066
:1023E0000907090E002804DB00F1E02080F8001442
:1023F000704700F00F0000F1E02080F8141D7047D6
:102400000EB5FEF7F9FAFFF7FCFEFFF7D3FAFFF778
:1024100025FBFFF743FBFFF779FBFFF7F7FBFFF720
:10242000A9FB4FF47A70FEF741F8094E4FF4B974E6
:102430005FF01805FFF784FEFDF74EFFCDE900546D
:102440000823812202214D200296FFF796FBF1E737
:10245000070000200246012000E05043491EC9B297
:10246000FBD27047000000000000000001020304DE
:102470000607080900000000010203040000000034
:1024800000000000002F00000000070007000014FB
:102490007F147F1400242A7F2A1200626408132309
:1024A00000364955225000000503000000001C22A0
:1024B0004100000041221C000014083E08140008DE
:1024C000083E0808000000A060000008080808088E
:1024D000000060600000002010080402003E514926
:1024E000453E0000427F40000042615149460021C4
:1024F00041454B31001814127F10002745454539DE
:10250000003C4A4949300001710905030036494938
:10251000493600064949291E0000363600000000F1
:10252000563600000008142241000014141414143C
:1025300000004122140800020151090600324959E5
:10254000513E007C1211127C007F49494936003E01
:1025500041414122007F4141221C007F49494941BC
:10256000007F09090901003E4149497A007F0808B6
:10257000087F0000417F4100002040413F01007F73
:1025800008142241007F40404040007F020C027F3F
:10259000007F0408107F003E4141413E007F090951
:1025A0000906003E4151215E007F09192946004677
:1025B000494949310001017F0101003F4040403F4E
:1025C000001F2040201F003F4038403F0063140898
:1025D0001463000708700807006151494543000073
:1025E0007F41410000552A552A55000041417F0096
:1025F000000402010204004040404040000001028B
:102600000400002054545478007F48444438003873
:102610004444442000384444487F003854545418FB
:1026200000087E0901020018A4A4A47C007F08040D
:1026300004780000447D4000004080847D00007FDD
:10264000102844000000417F4000007C04180478FA
:10265000007C0804047800384444443800FC2424F6
:1026600024180018242418FC007C080404080048DE
:102670005454542000043F444020003C4040207CFF
:10268000001C2040201C003C4030403C00442810EE
:102690002844001CA0A0A07C004464544C441414A2
:1026A00014141414000000000000000000000000DA
:1026B00000000000000000F80000000000000033EF
:1026C0003000000000100C06100C06000000000096
:1026D0000000000040C07840C0784000043F04047F
:1026E0003F040400007088FC08300000001820FF40
:1026F000211E0000F008F000E018000000211C037B
:102700001E211E0000F00888700000001E212324F6
:102710001927211010160E00000000000000000014
:1027200000000000000000E01804020000000007A4
:102730001820400000020418E000000000402018AB
:1027400007000000404080F0804040000202010F7E
:1027500001020200000000F0000000000101011F62
:1027600001010100000000000000000080B07000C6
:102770000000000000000000000000000001010156
:1027800001010101000000000000000000303000E5
:1027900000000000000000008060180400601806BF
:1027A0000100000000E010080810E000000F1020F9
:1027B00020100F00001010F8000000000020203F43
:1027C00020200000007008080888700000302824CD
:1027D000222130000030088888483000001820206E
:1027E00020110E000000C02010F800000007042493
:1027F000243F240000F808888808080000192120D8
:1028000020110E0000E0108888180000000F112031
:1028100020110E0000380808C83808000000003FEA
:10282000000000000070880808887000001C222149
:1028300021221C0000E010080810E00000003122F6
:1028400022110F00000000C0C00000000000003096
:1028500030000000000000800000000000008060E8
:102860000000000000008040201008000001020469
:102870000810200040404040404040000404040450
:10288000040404000008102040800000002010080C
:1028900004020100007048080808F0000000003041
:1028A00036010000C030C828E810E00007182724CF
:1028B00023140B000000C038E0000000203C23027D
:1028C0000227382008F8888888700000203F2020E0
:1028D00020110E00C0300808080838000718202012
:1028E0002010080008F808080810E000203F202009
:1028F00020100F0008F88888E8081000203F2020EA
:102900002320180008F88888E8081000203F2000DD
:1029100003000000C0300808083800000718202015
:10292000221E020008F808000008F808203F2101D4
:1029300001213F20000808F8080800000020203F7F
:102940002020000000000808F8080800C0808080EF
:102950007F00000008F888C028180800203F2001E8
:102960002638200008F8080000000000203F202042
:102970002020300008F8F800F8F80800203F003F59
:10298000003F200008F830C00008F808203F200071
:1029900007183F00E01008080810E0000F10202082
:1029A00020100F0008F808080808F000203F210157
:1029B00001010000E01008080810E0000F182424AE
:1029C00038504F0008F8888888887000203F200021
:1029D000030C3020007088080808380000382021D7
:1029E00021221C00180808F8080818000000203FE1
:1029F0002000000008F808000008F808001F202048
:102A000020201F000878880000C838080000073818
:102A10000E010000F80800F80008F800033C070069
:102A2000073C0300081868808068180820302C03D1
:102A3000032C30200838C800C83808000000203FA8
:102A40002000000010080808C83808002038262197
:102A500020201800000000FE020202000000007F9B
:102A600040404000000C30C00000000000000001A9
:102A70000638C00000020202FE0000000040404094
:102A80007F000000000004020202040000000000B9
:102A90000000000000000000000000008080808036
:102AA000808080800002020400000000000000001E
:102AB00000000000000080808080000000192422B7
:102AC00022223F2008F8008080000000003F1120F3
:102AD00020110E000000008080800000000E1120F8
:102AE00020201100000000808088F800000E1120D6
:102AF00020103F200000808080800000001F2222E4
:102B000022221300008080F0888888180020203F4F
:102B1000202000000000808080808000006B949462
:102B20009493600008F8008080800000203F21001E
:102B300000203F2000809898000000000020203FE7
:102B400020200000000000809898000000C08080D5
:102B5000807F000008F8000080808000203F240271
:102B60002D302000000808F8000000000020203F61
:102B7000202000008080808080808000203F200016
:102B80003F20003F8080008080800000203F2100A7
:102B900000203F200000808080800000001F202057
:102BA00020201F00808000808000000080FFA12086
:102BB00020110E000000008080808000000E112097
:102BC00020A0FF80808080008080800020203F2126
:102BD00020000100000080808080800000332424D9
:102BE00024241900008080E0808000000000001F85
:102BF000202000008080000000808000001F202036
:102C000020103F20808080000080808000010E30F6
:102C10000806010080800080008080800F300C0357
:102C20000C300F0000808000808080000020312E5A
:102C30000E312000808080000080808080818E7036
:102C40001806010000808080808080000021302CE8
:102C50002221300000000000807C02020000000001
:102C6000003F404000000000FF00000000000000A6
:102C7000FF0000000002027C800000000040403F96
:102C80000000000000060101020204040000000030
:102C900000000000B42C00080000002068230000A1
:102CA00028010008043100086823002010070000F4
:102CB0008C01000842000100077702013400340053
:102CC000011009070703010101030306032500039F
:102CD000348004E0F0FF0102250135927C340008C5
:102CE00020FF7F1E0E0606066A9134032580809E13
:102CF00082F0010114F30511722505170000094146
:102D000006052309250560047F7FFF060623836EE1
:102D1000A61F061404FFCF077F310105196EB3808B
:102D2000C0341008FCFCF8F0E0E0C00105263A07CA
:102D300025FFFFD916E0D022FE5E040823E0F0FE56
:102D4000FFFF1F07DB112E81AA0214E096097CE425
:102D500023E07F0125AE19AF0921AAA8063C3E3E1B
:102D60003F3FAE00081E3F3F3F3E3C382068B5A8BD
:102D70000A25E0AFA5A70127D12FE0800E0311059A
:102D80000A1680050911E4B603CF0D24B703ABC0C2
:102D9000FC7B061BF837BC0B1C1C1E1F1F1F0F0FD4
:102DA0000F7FEA03123F15254111010B133C1CE074
:102DB00011C6BAC0E41AF8DF05223F0730C0F83C5C
:102DC0001A07052FF8F824040C0721F8F8FF1F0F45
:102DD00007BA041E406F03818F0D168804091EE494
:102DE0000D26280568067E7F7F3F3FB2011E9F4269
:102DF0000701BE0F5604167F84421F0107121E1CD6
:102E00007310048080E0FFB5DB257221010D1E9157
:102E1000059EFD17030A260FB01FF8FE56040C0886
:102E200049F0F0FCFCFCFEFEBB060D4856041A10EF
:102E30000981010F1B0E0CC9061B787ED4D60F74B6
:102E40002DC70531430D19C8052B80C074BDCC05B5
:102E5000BBF8F85C0D1602060D32250422CF5F3D4B
:102E60000C0704045AF8F830728804203C1F711DC6
:102E7000EC030523BCBE01D4060D2296052DB1033B
:102E8000B9B31D240308081C7E7C7C78383838B31D
:102E9000A1350E26C0450899E80F237F070F083F8C
:102EA00060E096074DCE0412C00D0A8C70E42DA28E
:102EB000051DA0051D2D0441010525A9940400014F
:102EC000F1400F248F073706BAE0E60E247C220A71
:102ED0009E314F030926E64E88CC0539E70F5C7C0E
:102EE0001856049004203F1F010F1A3F3CE80915B3
:102EF000653E07D609C9E80D1B33054D9705D9E690
:102F0000198129E611010C041DF0F0608E0A7D582C
:102F10000A0E25C17D08BDB2080E250FA2061D812F
:102F20000A5D0E0712C0B00F683808C8050D2643A9
:102F300007827F010F1FFFF015031E1EB708AC04A8
:102F40000F0FDFF0095D3C070D1B5B041DB708BDCB
:102F50001D090E24F0B4085DD40C1EFE610B04059F
:102F600025FF3F0F03746EF0660B0E1FC0F90B09AF
:102F70003CE41E30CC058D23040E1A1E52031A06A3
:102F8000E53D3607BF03C76C0C8004030103010E47
:102F90001401F009C804E0F0FAE54EFED60C0E1C50
:102FA000808508A9B00E26CF100E3F80F0270A3684
:102FB000FE730D26E30E1DB50859E61D96030E5946
:102FC000E056049E0879080C0431071F18B8030D59
:102FD00024DD0DCE0CD30C2D55041E7C6C040F1B70
:102FE00070701C08AD7C0E0C0426DF1F1C820F0EB7
:102FF00030F9250A1D36075D5A0B0A4180E10D287C
:1030000056040D24080D4C04F0FCFF920B3D5404B3
:103010000D24E803BE3E440E0E2503840FADC80503
:103020000C0524F4E06020A70D8D91110A281FE201
:103030007D7003065DC07209FFE40970E40DFFC8EE
:10304000050D6EC8050DFFAC080D70AC080DFF90A6
:103050000B0D7E900B0DFF740E0D5B740E0DFF5863
:10306000110DA458110DFF3C140D45900B0DFF20C0
:10307000170D6220170DFF041A0D7C041A0DFFE8CE
:103080001C0D62E81C0DFFCC1F0D5CCC1F3D3211E6
:103090006E10680E200C24F4001060028C0000FEFC
:1030A00092012DBF04100A04047E01407E42427E3C
:1030B000022C04427E40A20A2008242424FC252657
:1030C0002408240F040040308F80844C552525258A
:1030D000554CE03140413F7140000B204448507F47
:1030E00040407F504844402009060909E6F80C0496
:1030F000020157041E9B20043020400100050020DF
:0431000010000000BB
:04000005080000ED02
:00000001FF
